{
  "address": "0xc3551B5580f49B7f8F0a207d15A99703FDf0Fa07",
  "abi": [
    {
      "inputs": [],
      "name": "ReentrancyGuardReentrantCall",
      "type": "error"
    },
    {
      "anonymous": false,
      "inputs": [
        {
          "indexed": true,
          "internalType": "uint256",
          "name": "projectId",
          "type": "uint256"
        },
        {
          "indexed": false,
          "internalType": "uint256",
          "name": "milestoneIndex",
          "type": "uint256"
        },
        {
          "indexed": true,
          "internalType": "address",
          "name": "assignee",
          "type": "address"
        }
      ],
      "name": "MilestoneAccepted",
      "type": "event"
    },
    {
      "anonymous": false,
      "inputs": [
        {
          "indexed": true,
          "internalType": "uint256",
          "name": "projectId",
          "type": "uint256"
        },
        {
          "indexed": false,
          "internalType": "uint256",
          "name": "milestoneIndex",
          "type": "uint256"
        },
        {
          "indexed": false,
          "internalType": "uint256",
          "name": "assigneeAmount",
          "type": "uint256"
        },
        {
          "indexed": false,
          "internalType": "uint256",
          "name": "pmFee",
          "type": "uint256"
        }
      ],
      "name": "MilestoneApproved",
      "type": "event"
    },
    {
      "anonymous": false,
      "inputs": [
        {
          "indexed": true,
          "internalType": "uint256",
          "name": "projectId",
          "type": "uint256"
        },
        {
          "indexed": false,
          "internalType": "uint256",
          "name": "milestoneIndex",
          "type": "uint256"
        },
        {
          "indexed": true,
          "internalType": "address",
          "name": "assignee",
          "type": "address"
        },
        {
          "indexed": true,
          "internalType": "address",
          "name": "assignedBy",
          "type": "address"
        }
      ],
      "name": "MilestoneAssigned",
      "type": "event"
    },
    {
      "anonymous": false,
      "inputs": [
        {
          "indexed": true,
          "internalType": "uint256",
          "name": "projectId",
          "type": "uint256"
        },
        {
          "indexed": false,
          "internalType": "uint256",
          "name": "milestoneIndex",
          "type": "uint256"
        },
        {
          "indexed": true,
          "internalType": "address",
          "name": "assignee",
          "type": "address"
        },
        {
          "indexed": false,
          "internalType": "string",
          "name": "reason",
          "type": "string"
        }
      ],
      "name": "MilestoneDeclined",
      "type": "event"
    },
    {
      "anonymous": false,
      "inputs": [
        {
          "indexed": true,
          "internalType": "uint256",
          "name": "projectId",
          "type": "uint256"
        },
        {
          "indexed": false,
          "internalType": "uint256",
          "name": "milestoneIndex",
          "type": "uint256"
        },
        {
          "indexed": false,
          "internalType": "uint256",
          "name": "amount",
          "type": "uint256"
        },
        {
          "indexed": false,
          "internalType": "bool",
          "name": "autoReleased",
          "type": "bool"
        }
      ],
      "name": "MilestonePaid",
      "type": "event"
    },
    {
      "anonymous": false,
      "inputs": [
        {
          "indexed": true,
          "internalType": "uint256",
          "name": "projectId",
          "type": "uint256"
        },
        {
          "indexed": false,
          "internalType": "uint256",
          "name": "milestoneIndex",
          "type": "uint256"
        },
        {
          "indexed": false,
          "internalType": "string",
          "name": "reason",
          "type": "string"
        }
      ],
      "name": "MilestoneRejected",
      "type": "event"
    },
    {
      "anonymous": false,
      "inputs": [
        {
          "indexed": true,
          "internalType": "uint256",
          "name": "projectId",
          "type": "uint256"
        },
        {
          "indexed": false,
          "internalType": "uint256",
          "name": "milestoneIndex",
          "type": "uint256"
        }
      ],
      "name": "MilestoneStarted",
      "type": "event"
    },
    {
      "anonymous": false,
      "inputs": [
        {
          "indexed": true,
          "internalType": "uint256",
          "name": "projectId",
          "type": "uint256"
        },
        {
          "indexed": false,
          "internalType": "uint256",
          "name": "milestoneIndex",
          "type": "uint256"
        },
        {
          "indexed": false,
          "internalType": "string",
          "name": "note",
          "type": "string"
        }
      ],
      "name": "MilestoneSubmitted",
      "type": "event"
    },
    {
      "anonymous": false,
      "inputs": [
        {
          "indexed": true,
          "internalType": "uint256",
          "name": "projectId",
          "type": "uint256"
        },
        {
          "indexed": false,
          "internalType": "uint256",
          "name": "milestoneIndex",
          "type": "uint256"
        },
        {
          "indexed": true,
          "internalType": "address",
          "name": "previousAssignee",
          "type": "address"
        }
      ],
      "name": "MilestoneUnassigned",
      "type": "event"
    },
    {
      "anonymous": false,
      "inputs": [
        {
          "indexed": true,
          "internalType": "uint256",
          "name": "projectId",
          "type": "uint256"
        },
        {
          "indexed": false,
          "internalType": "uint256",
          "name": "refundAmount",
          "type": "uint256"
        }
      ],
      "name": "ProjectCancelled",
      "type": "event"
    },
    {
      "anonymous": false,
      "inputs": [
        {
          "indexed": true,
          "internalType": "uint256",
          "name": "projectId",
          "type": "uint256"
        },
        {
          "indexed": true,
          "internalType": "address",
          "name": "client",
          "type": "address"
        },
        {
          "indexed": false,
          "internalType": "address",
          "name": "pm",
          "type": "address"
        },
        {
          "indexed": false,
          "internalType": "uint256",
          "name": "pmFeeBps",
          "type": "uint256"
        },
        {
          "indexed": false,
          "internalType": "uint256",
          "name": "totalAmount",
          "type": "uint256"
        },
        {
          "indexed": false,
          "internalType": "uint256",
          "name": "milestoneCount",
          "type": "uint256"
        }
      ],
      "name": "ProjectCreated",
      "type": "event"
    },
    {
      "inputs": [],
      "name": "ASSIGNMENT_TIMEOUT",
      "outputs": [
        {
          "internalType": "uint256",
          "name": "",
          "type": "uint256"
        }
      ],
      "stateMutability": "view",
      "type": "function"
    },
    {
      "inputs": [],
      "name": "BPS_DENOMINATOR",
      "outputs": [
        {
          "internalType": "uint256",
          "name": "",
          "type": "uint256"
        }
      ],
      "stateMutability": "view",
      "type": "function"
    },
    {
      "inputs": [],
      "name": "MAX_PM_FEE_BPS",
      "outputs": [
        {
          "internalType": "uint256",
          "name": "",
          "type": "uint256"
        }
      ],
      "stateMutability": "view",
      "type": "function"
    },
    {
      "inputs": [],
      "name": "MIN_MILESTONE_AMOUNT",
      "outputs": [
        {
          "internalType": "uint256",
          "name": "",
          "type": "uint256"
        }
      ],
      "stateMutability": "view",
      "type": "function"
    },
    {
      "inputs": [],
      "name": "TIMEOUT_PERIOD",
      "outputs": [
        {
          "internalType": "uint256",
          "name": "",
          "type": "uint256"
        }
      ],
      "stateMutability": "view",
      "type": "function"
    },
    {
      "inputs": [
        {
          "internalType": "uint256",
          "name": "projectId",
          "type": "uint256"
        },
        {
          "internalType": "uint256",
          "name": "milestoneIndex",
          "type": "uint256"
        }
      ],
      "name": "acceptMilestone",
      "outputs": [],
      "stateMutability": "nonpayable",
      "type": "function"
    },
    {
      "inputs": [
        {
          "internalType": "uint256",
          "name": "projectId",
          "type": "uint256"
        },
        {
          "internalType": "uint256",
          "name": "milestoneIndex",
          "type": "uint256"
        }
      ],
      "name": "approveMilestone",
      "outputs": [],
      "stateMutability": "nonpayable",
      "type": "function"
    },
    {
      "inputs": [
        {
          "internalType": "uint256",
          "name": "projectId",
          "type": "uint256"
        },
        {
          "internalType": "uint256",
          "name": "milestoneIndex",
          "type": "uint256"
        },
        {
          "internalType": "address",
          "name": "assignee",
          "type": "address"
        }
      ],
      "name": "assignMilestone",
      "outputs": [],
      "stateMutability": "nonpayable",
      "type": "function"
    },
    {
      "inputs": [
        {
          "internalType": "uint256",
          "name": "projectId",
          "type": "uint256"
        }
      ],
      "name": "cancelProject",
      "outputs": [],
      "stateMutability": "nonpayable",
      "type": "function"
    },
    {
      "inputs": [
        {
          "internalType": "address",
          "name": "pm",
          "type": "address"
        },
        {
          "internalType": "uint256",
          "name": "pmFeeBps",
          "type": "uint256"
        },
        {
          "internalType": "string[]",
          "name": "descriptions",
          "type": "string[]"
        },
        {
          "internalType": "uint256[]",
          "name": "amounts",
          "type": "uint256[]"
        },
        {
          "internalType": "address[]",
          "name": "initialAssignees",
          "type": "address[]"
        }
      ],
      "name": "createProject",
      "outputs": [
        {
          "internalType": "uint256",
          "name": "",
          "type": "uint256"
        }
      ],
      "stateMutability": "payable",
      "type": "function"
    },
    {
      "inputs": [
        {
          "internalType": "uint256",
          "name": "projectId",
          "type": "uint256"
        },
        {
          "internalType": "uint256",
          "name": "milestoneIndex",
          "type": "uint256"
        },
        {
          "internalType": "string",
          "name": "reason",
          "type": "string"
        }
      ],
      "name": "declineMilestone",
      "outputs": [],
      "stateMutability": "nonpayable",
      "type": "function"
    },
    {
      "inputs": [
        {
          "internalType": "uint256",
          "name": "projectId",
          "type": "uint256"
        },
        {
          "internalType": "uint256",
          "name": "milestoneIndex",
          "type": "uint256"
        }
      ],
      "name": "emergencyReclaim",
      "outputs": [],
      "stateMutability": "nonpayable",
      "type": "function"
    },
    {
      "inputs": [
        {
          "internalType": "uint256",
          "name": "projectId",
          "type": "uint256"
        },
        {
          "internalType": "uint256",
          "name": "milestoneIndex",
          "type": "uint256"
        }
      ],
      "name": "expireAssignment",
      "outputs": [],
      "stateMutability": "nonpayable",
      "type": "function"
    },
    {
      "inputs": [
        {
          "internalType": "uint256",
          "name": "projectId",
          "type": "uint256"
        },
        {
          "internalType": "address",
          "name": "addr",
          "type": "address"
        }
      ],
      "name": "getAddressRole",
      "outputs": [
        {
          "internalType": "bool",
          "name": "isClient",
          "type": "bool"
        },
        {
          "internalType": "bool",
          "name": "isPM",
          "type": "bool"
        },
        {
          "internalType": "uint256[]",
          "name": "assignedMilestones",
          "type": "uint256[]"
        }
      ],
      "stateMutability": "view",
      "type": "function"
    },
    {
      "inputs": [
        {
          "internalType": "uint256",
          "name": "projectId",
          "type": "uint256"
        }
      ],
      "name": "getAllMilestones",
      "outputs": [
        {
          "internalType": "string[]",
          "name": "descriptions",
          "type": "string[]"
        },
        {
          "internalType": "uint256[]",
          "name": "amounts",
          "type": "uint256[]"
        },
        {
          "internalType": "address[]",
          "name": "assignees",
          "type": "address[]"
        },
        {
          "internalType": "enum ProjectEscrow.MilestoneStatus[]",
          "name": "statuses",
          "type": "uint8[]"
        },
        {
          "internalType": "uint256[]",
          "name": "submittedAts",
          "type": "uint256[]"
        },
        {
          "internalType": "string[]",
          "name": "submissionNotes",
          "type": "string[]"
        }
      ],
      "stateMutability": "view",
      "type": "function"
    },
    {
      "inputs": [
        {
          "internalType": "uint256",
          "name": "projectId",
          "type": "uint256"
        },
        {
          "internalType": "uint256",
          "name": "milestoneIndex",
          "type": "uint256"
        }
      ],
      "name": "getMilestone",
      "outputs": [
        {
          "internalType": "string",
          "name": "description",
          "type": "string"
        },
        {
          "internalType": "uint256",
          "name": "amount",
          "type": "uint256"
        },
        {
          "internalType": "address",
          "name": "assignee",
          "type": "address"
        },
        {
          "internalType": "enum ProjectEscrow.MilestoneStatus",
          "name": "status",
          "type": "uint8"
        },
        {
          "internalType": "uint256",
          "name": "createdAt",
          "type": "uint256"
        },
        {
          "internalType": "uint256",
          "name": "submittedAt",
          "type": "uint256"
        },
        {
          "internalType": "string",
          "name": "submissionNote",
          "type": "string"
        }
      ],
      "stateMutability": "view",
      "type": "function"
    },
    {
      "inputs": [
        {
          "internalType": "uint256",
          "name": "projectId",
          "type": "uint256"
        },
        {
          "internalType": "uint256",
          "name": "milestoneIndex",
          "type": "uint256"
        }
      ],
      "name": "getMilestoneTimestamps",
      "outputs": [
        {
          "internalType": "uint256",
          "name": "createdAt",
          "type": "uint256"
        },
        {
          "internalType": "uint256",
          "name": "assignedAt",
          "type": "uint256"
        },
        {
          "internalType": "uint256",
          "name": "acceptedAt",
          "type": "uint256"
        },
        {
          "internalType": "uint256",
          "name": "submittedAt",
          "type": "uint256"
        },
        {
          "internalType": "bool",
          "name": "canAutoRelease",
          "type": "bool"
        }
      ],
      "stateMutability": "view",
      "type": "function"
    },
    {
      "inputs": [
        {
          "internalType": "uint256",
          "name": "projectId",
          "type": "uint256"
        }
      ],
      "name": "getProject",
      "outputs": [
        {
          "internalType": "address",
          "name": "client",
          "type": "address"
        },
        {
          "internalType": "address",
          "name": "pm",
          "type": "address"
        },
        {
          "internalType": "uint256",
          "name": "pmFeeBps",
          "type": "uint256"
        },
        {
          "internalType": "uint256",
          "name": "totalAmount",
          "type": "uint256"
        },
        {
          "internalType": "uint256",
          "name": "totalPaid",
          "type": "uint256"
        },
        {
          "internalType": "uint256",
          "name": "totalPmFees",
          "type": "uint256"
        },
        {
          "internalType": "bool",
          "name": "active",
          "type": "bool"
        },
        {
          "internalType": "uint256",
          "name": "milestoneCount",
          "type": "uint256"
        }
      ],
      "stateMutability": "view",
      "type": "function"
    },
    {
      "inputs": [
        {
          "internalType": "uint256",
          "name": "projectId",
          "type": "uint256"
        }
      ],
      "name": "getProjectStats",
      "outputs": [
        {
          "internalType": "uint256",
          "name": "totalMilestones",
          "type": "uint256"
        },
        {
          "internalType": "uint256",
          "name": "completedMilestones",
          "type": "uint256"
        },
        {
          "internalType": "uint256",
          "name": "paidMilestones",
          "type": "uint256"
        },
        {
          "internalType": "uint256",
          "name": "remainingAmount",
          "type": "uint256"
        },
        {
          "internalType": "uint256",
          "name": "assignedMilestones",
          "type": "uint256"
        },
        {
          "internalType": "uint256",
          "name": "acceptedMilestones",
          "type": "uint256"
        }
      ],
      "stateMutability": "view",
      "type": "function"
    },
    {
      "inputs": [],
      "name": "projectCount",
      "outputs": [
        {
          "internalType": "uint256",
          "name": "",
          "type": "uint256"
        }
      ],
      "stateMutability": "view",
      "type": "function"
    },
    {
      "inputs": [
        {
          "internalType": "uint256",
          "name": "",
          "type": "uint256"
        }
      ],
      "name": "projects",
      "outputs": [
        {
          "internalType": "address",
          "name": "client",
          "type": "address"
        },
        {
          "internalType": "address",
          "name": "pm",
          "type": "address"
        },
        {
          "internalType": "uint256",
          "name": "pmFeeBps",
          "type": "uint256"
        },
        {
          "internalType": "uint256",
          "name": "totalAmount",
          "type": "uint256"
        },
        {
          "internalType": "uint256",
          "name": "totalPaid",
          "type": "uint256"
        },
        {
          "internalType": "uint256",
          "name": "totalPmFees",
          "type": "uint256"
        },
        {
          "internalType": "bool",
          "name": "active",
          "type": "bool"
        }
      ],
      "stateMutability": "view",
      "type": "function"
    },
    {
      "inputs": [
        {
          "internalType": "uint256",
          "name": "projectId",
          "type": "uint256"
        },
        {
          "internalType": "uint256",
          "name": "milestoneIndex",
          "type": "uint256"
        },
        {
          "internalType": "string",
          "name": "reason",
          "type": "string"
        }
      ],
      "name": "rejectMilestone",
      "outputs": [],
      "stateMutability": "nonpayable",
      "type": "function"
    },
    {
      "inputs": [
        {
          "internalType": "uint256",
          "name": "projectId",
          "type": "uint256"
        },
        {
          "internalType": "uint256",
          "name": "milestoneIndex",
          "type": "uint256"
        }
      ],
      "name": "releaseMilestone",
      "outputs": [],
      "stateMutability": "nonpayable",
      "type": "function"
    },
    {
      "inputs": [
        {
          "internalType": "uint256",
          "name": "projectId",
          "type": "uint256"
        },
        {
          "internalType": "uint256",
          "name": "milestoneIndex",
          "type": "uint256"
        }
      ],
      "name": "startMilestone",
      "outputs": [],
      "stateMutability": "nonpayable",
      "type": "function"
    },
    {
      "inputs": [
        {
          "internalType": "uint256",
          "name": "projectId",
          "type": "uint256"
        },
        {
          "internalType": "uint256",
          "name": "milestoneIndex",
          "type": "uint256"
        },
        {
          "internalType": "string",
          "name": "note",
          "type": "string"
        }
      ],
      "name": "submitMilestone",
      "outputs": [],
      "stateMutability": "nonpayable",
      "type": "function"
    },
    {
      "inputs": [
        {
          "internalType": "uint256",
          "name": "projectId",
          "type": "uint256"
        },
        {
          "internalType": "uint256",
          "name": "milestoneIndex",
          "type": "uint256"
        }
      ],
      "name": "unassignMilestone",
      "outputs": [],
      "stateMutability": "nonpayable",
      "type": "function"
    }
  ],
  "transactionHash": "0xc48bc3008faea820efa67337326984814e45dd9bf774522588233c5d63a53133",
  "args": [],
  "numDeployments": 1,
  "solcInputHash": "4ea5fe88abe5e9b8113afa8ee5ac8242",
  "bytecode": "0x6080604052348015600f57600080fd5b5060016000556140e9806100246000396000f3fe6080604052600436106101815760003560e01c80636e2a373a116100d1578063dcfe7b981161008a578063e580bd9c11610064578063e580bd9c1461051a578063f0f3f2c814610564578063f5fce2451461061c578063ff6b78ba1461063357600080fd5b8063dcfe7b98146104c9578063de0edf6f146104e4578063e1a452181461050457600080fd5b80636e2a373a146103e457806379b5e44f146104045780638ed9895c1461042457806393eb102614610457578063a0b2389b14610477578063dbaf0910146104a957600080fd5b806336fbad261161013e5780635706d6f9116101185780635706d6f9146103285780635baf7a53146103485780635f1ca6a01461036857806364ca28b51461039757600080fd5b806336fbad26146102d7578063442f14d8146102fb57806349aa97611461031257600080fd5b80630390e07a14610186578063107046bd146101a8578063176da2ab1461025757806320913da51461027757806324941147146102975780633220d530146102b7575b600080fd5b34801561019257600080fd5b506101a66101a1366004613843565b610646565b005b3480156101b457600080fd5b506102106101c3366004613892565b600260208190526000918252604090912080546001820154928201546003830154600484015460058501546006909501546001600160a01b03948516969094169492939192909160ff1687565b604080516001600160a01b039889168152979096166020880152948601939093526060850191909152608084015260a0830152151560c082015260e0015b60405180910390f35b34801561026357600080fd5b506101a6610272366004613843565b61084b565b34801561028357600080fd5b506101a66102923660046138ab565b610a2e565b3480156102a357600080fd5b506101a66102b2366004613892565b610db1565b3480156102c357600080fd5b506101a66102d23660046138ab565b61114a565b3480156102e357600080fd5b506102ed60015481565b60405190815260200161024e565b34801561030757600080fd5b506102ed62093a8081565b34801561031e57600080fd5b506102ed6107d081565b34801561033457600080fd5b506101a66103433660046138e9565b6112ff565b34801561035457600080fd5b506101a66103633660046138ab565b611610565b34801561037457600080fd5b5061038861038336600461391e565b611972565b60405161024e93929190613986565b3480156103a357600080fd5b506103b76103b2366004613892565b611ada565b604080519687526020870195909552938501929092526060840152608083015260a082015260c00161024e565b3480156103f057600080fd5b506101a66103ff366004613843565b611c9c565b34801561041057600080fd5b506101a661041f3660046138ab565b611e3a565b34801561043057600080fd5b5061044461043f3660046138ab565b61204e565b60405161024e9796959493929190613a30565b34801561046357600080fd5b506101a66104723660046138ab565b612232565b34801561048357600080fd5b50610497610492366004613892565b6123ee565b60405161024e96959493929190613b28565b3480156104b557600080fd5b506101a66104c43660046138ab565b612826565b3480156104d557600080fd5b506102ed66038d7ea4c6800081565b3480156104f057600080fd5b506101a66104ff3660046138ab565b612c35565b34801561051057600080fd5b506102ed61271081565b34801561052657600080fd5b5061053a6105353660046138ab565b612e00565b6040805195865260208601949094529284019190915260608301521515608082015260a00161024e565b34801561057057600080fd5b506105d461057f366004613892565b6000908152600260208190526040909120805460018201549282015460038301546004840154600585015460068601546007909601546001600160a01b03958616989590971696939592949193909260ff1691565b604080516001600160a01b03998a168152989097166020890152958701949094526060860192909252608085015260a0840152151560c083015260e08201526101000161024e565b34801561062857600080fd5b506102ed6212750081565b6102ed610641366004613cce565b612ee5565b60008381526002602052604090206007018054849184918290811061066d5761066d613df3565b60009182526020909120600990910201600201546001600160a01b031633146106b15760405162461bcd60e51b81526004016106a890613e09565b60405180910390fd5b600085815260026020526040902060060154859060ff166106e45760405162461bcd60e51b81526004016106a890613e30565b6000868152600260205260409020600701548690869081106107185760405162461bcd60e51b81526004016106a890613e5c565b600088815260026020526040812060070180548990811061073b5761073b613df3565b6000918252602090912060099091020190506002600782015460ff166006811115610768576107686139f8565b148061078c57506003600782015460ff16600681111561078a5761078a6139f8565b145b6107e25760405162461bcd60e51b815260206004820152602160248201527f43616e6e6f74207375626d69742066726f6d2063757272656e742073746174756044820152607360f81b60648201526084016106a8565b60078101805460ff19166004179055426006820155600881016108058882613f1b565b50887f556e3b296d5e8c8bab27684b52ae96905507befd2d188ce6f4453a6717dd9c008989604051610838929190613fd9565b60405180910390a2505050505050505050565b60008381526002602052604090206007018054849184918290811061087257610872613df3565b60009182526020909120600990910201600201546001600160a01b031633146108ad5760405162461bcd60e51b81526004016106a890613e09565b600085815260026020526040902060060154859060ff166108e05760405162461bcd60e51b81526004016106a890613e30565b6000868152600260205260409020600701548690869081106109145760405162461bcd60e51b81526004016106a890613e5c565b600088815260026020526040812060070180548990811061093757610937613df3565b6000918252602090912060099091020190506001600782015460ff166006811115610964576109646139f8565b146109b15760405162461bcd60e51b815260206004820181905260248201527f4d696c6573746f6e65206e6f7420696e2041737369676e65642073746174757360448201526064016106a8565b6002810180546001600160a01b031981169091556000600483015560078201805460ff191690556040516001600160a01b039091169081908b907fb7a9f037cfc7937c33e666da488e45f0539ab2cf62eab74dbdb4378b8e3b0a1f90610a1a908d908d90613fd9565b60405180910390a350505050505050505050565b610a36613764565b60008281526002602052604090205482906001600160a01b03163314610a6e5760405162461bcd60e51b81526004016106a890613ffa565b600083815260026020526040902060060154839060ff16610aa15760405162461bcd60e51b81526004016106a890613e30565b600084815260026020526040902060070154849084908110610ad55760405162461bcd60e51b81526004016106a890613e5c565b600086815260026020526040812060078101805491929188908110610afc57610afc613df3565b6000918252602090912060099091020190506004600782015460ff166006811115610b2957610b296139f8565b14610b705760405162461bcd60e51b8152602060048201526017602482015276135a5b195cdd1bdb99481b9bdd081cdd589b5a5d1d1959604a1b60448201526064016106a8565b600061271083600201548360010154610b899190614035565b610b939190614052565b90506000818360010154610ba79190614074565b60078401805460ff1916600617905560018401546004860180549293509091600090610bd4908490614087565b9250508190555081846005016000828254610bef9190614087565b909155505060028301546040516000916001600160a01b03169083908381818185875af1925050503d8060008114610c43576040519150601f19603f3d011682016040523d82523d6000602084013e610c48565b606091505b5050905080610c995760405162461bcd60e51b815260206004820152601860248201527f41737369676e6565207472616e73666572206661696c6564000000000000000060448201526064016106a8565b60018501546001600160a01b031615801590610cb55750600083115b15610d565760018501546040516000916001600160a01b03169085908381818185875af1925050503d8060008114610d09576040519150601f19603f3d011682016040523d82523d6000602084013e610d0e565b606091505b5050905080610d545760405162461bcd60e51b81526020600482015260126024820152711413481d1c985b9cd9995c8819985a5b195960721b60448201526064016106a8565b505b604080518b8152602081018490529081018490528b907f9b9ff2232bef25105f0ccb79a748e9f9d8e01a04485cd0401aa0d1c34b94ba93906060015b60405180910390a2505050505050505050610dad6001600055565b5050565b60008181526002602052604090205481906001600160a01b03163314610de95760405162461bcd60e51b81526004016106a890613ffa565b600082815260026020526040902060060154829060ff16610e1c5760405162461bcd60e51b81526004016106a890613e30565b610e24613764565b60008381526002602052604081209080805b6007840154811015610f09576000846007018281548110610e5957610e59613df3565b600091825260209091206007600990920201015460ff1690506005816006811115610e8657610e866139f8565b1480610ea357506004816006811115610ea157610ea16139f8565b145b15610eb2576001925050610f09565b6006816006811115610ec657610ec66139f8565b14610f0057846007018281548110610ee057610ee0613df3565b90600052602060002090600902016001015484610efd9190614087565b93505b50600101610e36565b508015610f745760405162461bcd60e51b815260206004820152603360248201527f43616e6e6f742063616e63656c2077697468207375626d6974746564206f7220604482015272617070726f766564206d696c6573746f6e657360681b60648201526084016106a8565b60008211610fb95760405162461bcd60e51b8152602060048201526012602482015271139bc8199d5b991cc81d1bc81c99599d5b9960721b60448201526064016106a8565b60068301805460ff1916905560005b600784015481101561106a576006846007018281548110610feb57610feb613df3565b600091825260209091206007600990920201015460ff166006811115611013576110136139f8565b1461106257600684600701828154811061102f5761102f613df3565b60009182526020909120600760099092020101805460ff1916600183600681111561105c5761105c6139f8565b02179055505b600101610fc8565b5082546040516000916001600160a01b03169084908381818185875af1925050503d80600081146110b7576040519150601f19603f3d011682016040523d82523d6000602084013e6110bc565b606091505b50509050806110fd5760405162461bcd60e51b815260206004820152600d60248201526c1499599d5b990819985a5b1959609a1b60448201526064016106a8565b867f8c47220fd672419577c95c6addc9584af09f9e988ff5d84e437305210b61a4b18460405161112f91815260200190565b60405180910390a2505050506111456001600055565b505050565b60008281526002602052604090206007018054839183918290811061117157611171613df3565b60009182526020909120600990910201600201546001600160a01b031633146111ac5760405162461bcd60e51b81526004016106a890613e09565b600084815260026020526040902060060154849060ff166111df5760405162461bcd60e51b81526004016106a890613e30565b6000858152600260205260409020600701548590859081106112135760405162461bcd60e51b81526004016106a890613e5c565b600087815260026020526040812060070180548890811061123657611236613df3565b6000918252602090912060099091020190506002600782015460ff166006811115611263576112636139f8565b146112b05760405162461bcd60e51b815260206004820181905260248201527f4d696c6573746f6e65206e6f7420696e2041636365707465642073746174757360448201526064016106a8565b60078101805460ff1916600317905560405187815288907fffcd64ba445305863a00b339c134867e02001032f7b80525bfbcc93fbe282423906020015b60405180910390a25050505050505050565b600083815260026020526040902080548491906001600160a01b031633148061134b575060018101546001600160a01b03161580159061134b575060018101546001600160a01b031633145b61138b5760405162461bcd60e51b81526020600482015260116024820152704f6e6c7920636c69656e74206f7220504d60781b60448201526064016106a8565b600085815260026020526040902060060154859060ff166113be5760405162461bcd60e51b81526004016106a890613e30565b6000868152600260205260409020600701548690869081106113f25760405162461bcd60e51b81526004016106a890613e5c565b60008881526002602052604081206007810180549192918a90811061141957611419613df3565b6000918252602082206009909102019150600782015460ff166006811115611443576114436139f8565b146114905760405162461bcd60e51b815260206004820152601f60248201527f4d696c6573746f6e65206e6f7420696e2043726561746564207374617475730060448201526064016106a8565b6001600160a01b0388166114e65760405162461bcd60e51b815260206004820152601860248201527f496e76616c69642061737369676e65652061646472657373000000000000000060448201526064016106a8565b81546001600160a01b039081169089160361153f5760405162461bcd60e51b8152602060048201526019602482015278436c69656e742063616e6e6f742062652061737369676e656560381b60448201526064016106a8565b60018201546001600160a01b03908116908916036115975760405162461bcd60e51b8152602060048201526015602482015274504d2063616e6e6f742062652061737369676e656560581b60448201526064016106a8565b6002810180546001600160a01b0319166001600160a01b038a1690811790915542600483015560078201805460ff191660011790556040518a81523391908c907f14c8b65b26297ca8edd10eb94b1300fb6c198710b903943bd3756b8db1a708cc9060200160405180910390a450505050505050505050565b60008281526002602052604090205482906001600160a01b031633146116485760405162461bcd60e51b81526004016106a890613ffa565b600083815260026020526040902060060154839060ff1661167b5760405162461bcd60e51b81526004016106a890613e30565b6000848152600260205260409020600701548490849081106116af5760405162461bcd60e51b81526004016106a890613e5c565b6116b7613764565b6000868152600260205260408120600781018054919291889081106116de576116de613df3565b6000918252602090912060099091020190506006600782015460ff16600681111561170b5761170b6139f8565b036117475760405162461bcd60e51b815260206004820152600c60248201526b105b1c9958591e481c185a5960a21b60448201526064016106a8565b6005600782015460ff166006811115611762576117626139f8565b1415801561178957506004600782015460ff166006811115611786576117866139f8565b14155b6117ec5760405162461bcd60e51b815260206004820152602e60248201527f43616e6e6f74207265636c61696d20617070726f766564206f72207375626d6960448201526d74746564206d696c6573746f6e6560901b60648201526084016106a8565b60006117fc621275006002614035565b826003015461180b9190614087565b90508042101561185d5760405162461bcd60e51b815260206004820152601d60248201527f456d657267656e63792074696d656f7574206e6f74207265616368656400000060448201526064016106a8565b60078201805460ff19166006179055825460018301546040516000926001600160a01b031691908381818185875af1925050503d80600081146118bc576040519150601f19603f3d011682016040523d82523d6000602084013e6118c1565b606091505b50509050806119125760405162461bcd60e51b815260206004820152601860248201527f456d657267656e6379207265636c61696d206661696c6564000000000000000060448201526064016106a8565b600180840154604080518c815260208101929092528101919091528a907f72f7fbbb65b9676493891b1db16679b5f18463b98706a57923cf18c1d44604ba9060600160405180910390a25050505061196a6001600055565b505050505050565b6000828152600260205260408120805460018201546001600160a01b03858116928116831494911690911491606091805b6007830154811015611a0657866001600160a01b03168360070182815481106119ce576119ce613df3565b60009182526020909120600260099092020101546001600160a01b0316036119fe57816119fa8161409a565b9250505b6001016119a3565b50806001600160401b03811115611a1f57611a1f61378e565b604051908082528060200260200182016040528015611a48578160200160208202803683370190505b5092506000805b6007840154811015611acf57876001600160a01b0316846007018281548110611a7a57611a7a613df3565b60009182526020909120600260099092020101546001600160a01b031603611ac757808583611aa88161409a565b945081518110611aba57611aba613df3565b6020026020010181815250505b600101611a4f565b505050509250925092565b60008181526002602052604081208190819081908190819081808080805b6007860154811015611c67576000866007018281548110611b1b57611b1b613df3565b600091825260209091206007600990920201015460ff1690506001816006811115611b4857611b486139f8565b03611b5b5783611b578161409a565b9450505b6002816006811115611b6f57611b6f6139f8565b1480611b8c57506003816006811115611b8a57611b8a6139f8565b145b80611ba857506004816006811115611ba657611ba66139f8565b145b80611bc457506005816006811115611bc257611bc26139f8565b145b80611be057506006816006811115611bde57611bde6139f8565b145b15611bf35782611bef8161409a565b9350505b6005816006811115611c0757611c076139f8565b1480611c2457506006816006811115611c2257611c226139f8565b145b15611c375785611c338161409a565b9650505b6006816006811115611c4b57611c4b6139f8565b03611c5e5784611c5a8161409a565b9550505b50600101611af8565b5060078501546004860154600387015486918691611c859190614074565b929f919e509c50909a509198509650945050505050565b60008381526002602052604090205483906001600160a01b03163314611cd45760405162461bcd60e51b81526004016106a890613ffa565b600084815260026020526040902060060154849060ff16611d075760405162461bcd60e51b81526004016106a890613e30565b600085815260026020526040902060070154859085908110611d3b5760405162461bcd60e51b81526004016106a890613e5c565b6000878152600260205260408120600701805488908110611d5e57611d5e613df3565b6000918252602090912060099091020190506004600782015460ff166006811115611d8b57611d8b6139f8565b14611dd25760405162461bcd60e51b8152602060048201526017602482015276135a5b195cdd1bdb99481b9bdd081cdd589b5a5d1d1959604a1b60448201526064016106a8565b60078101805460ff1916600317905560006006820181905560408051602081019091529081526008820190611e079082613f1b565b50877f2632a738857d774f3179abee0fa205787aea133c8f6d4cbfe4e605028d3e823088886040516112ed929190613fd9565b600082815260026020526040902080548391906001600160a01b0316331480611e86575060018101546001600160a01b031615801590611e86575060018101546001600160a01b031633145b611ec65760405162461bcd60e51b81526020600482015260116024820152704f6e6c7920636c69656e74206f7220504d60781b60448201526064016106a8565b600084815260026020526040902060060154849060ff16611ef95760405162461bcd60e51b81526004016106a890613e30565b600085815260026020526040902060070154859085908110611f2d5760405162461bcd60e51b81526004016106a890613e5c565b6000878152600260205260408120600701805488908110611f5057611f50613df3565b6000918252602090912060099091020190506001600782015460ff166006811115611f7d57611f7d6139f8565b14611fd95760405162461bcd60e51b815260206004820152602660248201527f43616e206f6e6c7920756e61737369676e2066726f6d2041737369676e65642060448201526573746174757360d01b60648201526084016106a8565b6002810180546001600160a01b031981169091556000600483015560078201805460ff191690556040518881526001600160a01b039091169081908a907f78bb3a290f28e478ec7f45d2d0bff0c9e69a3e89e882b5527fc6f27264bf58a59060200160405180910390a3505050505050505050565b6060600080600080600060608888600260008381526020019081526020016000206007018054905081106120945760405162461bcd60e51b81526004016106a890613e5c565b60008b815260026020526040812060070180548c9081106120b7576120b7613df3565b6000918252602090912060099091020160018101546002820154600783015460038401546006850154855495965086956001600160a01b039094169360ff909316926008870190879061210990613e93565b80601f016020809104026020016040519081016040528092919081815260200182805461213590613e93565b80156121825780601f1061215757610100808354040283529160200191612182565b820191906000526020600020905b81548152906001019060200180831161216557829003601f168201915b5050505050965080805461219590613e93565b80601f01602080910402602001604051908101604052809291908181526020018280546121c190613e93565b801561220e5780601f106121e35761010080835404028352916020019161220e565b820191906000526020600020905b8154815290600101906020018083116121f157829003601f168201915b50505050509050995099509950995099509950995050505092959891949750929550565b60008281526002602052604090206007018054839183918290811061225957612259613df3565b60009182526020909120600990910201600201546001600160a01b031633146122945760405162461bcd60e51b81526004016106a890613e09565b600084815260026020526040902060060154849060ff166122c75760405162461bcd60e51b81526004016106a890613e30565b6000858152600260205260409020600701548590859081106122fb5760405162461bcd60e51b81526004016106a890613e5c565b600087815260026020526040812060070180548890811061231e5761231e613df3565b6000918252602090912060099091020190506001600782015460ff16600681111561234b5761234b6139f8565b146123985760405162461bcd60e51b815260206004820181905260248201527f4d696c6573746f6e65206e6f7420696e2041737369676e65642073746174757360448201526064016106a8565b42600582015560078101805460ff19166002179055604051878152339089907ff3790ca98397d1f40de9c9c77e98763e751f64752adc0dec0dda9b24226d220e9060200160405180910390a35050505050505050565b6000818152600260205260409020600781015460609182918291829182918291806001600160401b038111156124265761242661378e565b60405190808252806020026020018201604052801561245957816020015b60608152602001906001900390816124445790505b509750806001600160401b038111156124745761247461378e565b60405190808252806020026020018201604052801561249d578160200160208202803683370190505b509650806001600160401b038111156124b8576124b861378e565b6040519080825280602002602001820160405280156124e1578160200160208202803683370190505b509550806001600160401b038111156124fc576124fc61378e565b604051908082528060200260200182016040528015612525578160200160208202803683370190505b509450806001600160401b038111156125405761254061378e565b604051908082528060200260200182016040528015612569578160200160208202803683370190505b509350806001600160401b038111156125845761258461378e565b6040519080825280602002602001820160405280156125b757816020015b60608152602001906001900390816125a25790505b50925060005b8181101561281a5760008360070182815481106125dc576125dc613df3565b906000526020600020906009020190508060000180546125fb90613e93565b80601f016020809104026020016040519081016040528092919081815260200182805461262790613e93565b80156126745780601f1061264957610100808354040283529160200191612674565b820191906000526020600020905b81548152906001019060200180831161265757829003601f168201915b50505050508a838151811061268b5761268b613df3565b602002602001018190525080600101548983815181106126ad576126ad613df3565b6020908102919091010152600281015488516001600160a01b03909116908990849081106126dd576126dd613df3565b6001600160a01b03909216602092830291909101909101526007810154875160ff9091169088908490811061271457612714613df3565b6020026020010190600681111561272d5761272d6139f8565b90816006811115612740576127406139f8565b81525050806006015486838151811061275b5761275b613df3565b60200260200101818152505080600801805461277690613e93565b80601f01602080910402602001604051908101604052809291908181526020018280546127a290613e93565b80156127ef5780601f106127c4576101008083540402835291602001916127ef565b820191906000526020600020905b8154815290600101906020018083116127d257829003601f168201915b505050505085838151811061280657612806613df3565b6020908102919091010152506001016125bd565b50505091939550919395565b61282e613764565b6000828152600260205260409020600701548290829081106128625760405162461bcd60e51b81526004016106a890613e5c565b6000848152600260205260409020600681015460ff166128945760405162461bcd60e51b81526004016106a890613e30565b60008160070185815481106128ab576128ab613df3565b6000918252602090912060099091020190506006600782015460ff1660068111156128d8576128d86139f8565b036129145760405162461bcd60e51b815260206004820152600c60248201526b105b1c9958591e481c185a5960a21b60448201526064016106a8565b60028101546001600160a01b031661295c5760405162461bcd60e51b815260206004820152600b60248201526a4e6f2061737369676e656560a81b60448201526064016106a8565b60006005600783015460ff166006811115612979576129796139f8565b14905060006004600784015460ff166006811115612999576129996139f8565b1480156129aa575060008360060154115b80156129c857506212750083600601546129c49190614087565b4210155b905081806129d35750805b612a165760405162461bcd60e51b81526020600482015260146024820152734e6f7420726561647920746f2072656c6561736560601b60448201526064016106a8565b600061271085600201548560010154612a2f9190614035565b612a399190614052565b90506000818560010154612a4d9190614074565b60078601805460ff1916600617905560018601546004880180549293509091600090612a7a908490614087565b9250508190555081866005016000828254612a959190614087565b909155505060028501546040516000916001600160a01b03169083908381818185875af1925050503d8060008114612ae9576040519150601f19603f3d011682016040523d82523d6000602084013e612aee565b606091505b5050905080612b315760405162461bcd60e51b815260206004820152600f60248201526e151c985b9cd9995c8819985a5b1959608a1b60448201526064016106a8565b60018701546001600160a01b031615801590612b4d5750600083115b15612bee5760018701546040516000916001600160a01b03169085908381818185875af1925050503d8060008114612ba1576040519150601f19603f3d011682016040523d82523d6000602084013e612ba6565b606091505b5050905080612bec5760405162461bcd60e51b81526020600482015260126024820152711413481d1c985b9cd9995c8819985a5b195960721b60448201526064016106a8565b505b6001860154604080518c81526020810192909252851515908201528b907f72f7fbbb65b9676493891b1db16679b5f18463b98706a57923cf18c1d44604ba90606001610d92565b600082815260026020526040902060060154829060ff16612c685760405162461bcd60e51b81526004016106a890613e30565b600083815260026020526040902060070154839083908110612c9c5760405162461bcd60e51b81526004016106a890613e5c565b6000858152600260205260408120600701805486908110612cbf57612cbf613df3565b6000918252602090912060099091020190506001600782015460ff166006811115612cec57612cec6139f8565b14612d325760405162461bcd60e51b81526020600482015260166024820152754e6f7420696e2041737369676e65642073746174757360501b60448201526064016106a8565b62093a808160040154612d459190614087565b421015612d8d5760405162461bcd60e51b8152602060048201526016602482015275105cdcda59db9b595b9d081b9bdd08195e1c1a5c995960521b60448201526064016106a8565b6002810180546001600160a01b031981169091556000600483015560078201805460ff191690556040518681526001600160a01b0390911690819088907f78bb3a290f28e478ec7f45d2d0bff0c9e69a3e89e882b5527fc6f27264bf58a59060200160405180910390a350505050505050565b6000828152600260205260408120600701548190819081908190879087908110612e3c5760405162461bcd60e51b81526004016106a890613e5c565b600089815260026020526040812060070180548a908110612e5f57612e5f613df3565b60009182526020822060099091020191506004600783015460ff166006811115612e8b57612e8b6139f8565b148015612e9c575060008260060154115b8015612eba5750621275008260060154612eb69190614087565b4210155b600383015460048401546005850154600690950154919e909d50939b50995097509095505050505050565b60008251845114612f305760405162461bcd60e51b8152602060048201526015602482015274082e4e4c2f240d8cadccee8d040dad2e6dac2e8c6d605b1b60448201526064016106a8565b6000845111612f815760405162461bcd60e51b815260206004820152601b60248201527f4e656564206174206c65617374206f6e65206d696c6573746f6e65000000000060448201526064016106a8565b603284511115612fc95760405162461bcd60e51b8152602060048201526013602482015272546f6f206d616e79206d696c6573746f6e657360681b60448201526064016106a8565b6107d085111561300d5760405162461bcd60e51b815260206004820152600f60248201526e0a09a40cccaca40e8dede40d0d2ced608b1b60448201526064016106a8565b8151158061301c575083518251145b6130685760405162461bcd60e51b815260206004820152601f60248201527f41737369676e656573206172726179206c656e677468206d69736d617463680060448201526064016106a8565b6001600160a01b038616156130ca57336001600160a01b038716036130c55760405162461bcd60e51b8152602060048201526013602482015272436c69656e742063616e6e6f7420626520504d60681b60448201526064016106a8565b613118565b84156131185760405162461bcd60e51b815260206004820152601960248201527f43616e6e6f74207365742066656520776974686f757420504d0000000000000060448201526064016106a8565b6000805b84518110156133a55766038d7ea4c6800085828151811061313f5761313f613df3565b602002602001015110156131885760405162461bcd60e51b815260206004820152601060248201526f105b5bdd5b9d081d1bdbc81cdb585b1b60821b60448201526064016106a8565b600086828151811061319c5761319c613df3565b602002602001015151116131e95760405162461bcd60e51b815260206004820152601460248201527311195cd8dc9a5c1d1a5bdb881c995c5d5a5c995960621b60448201526064016106a8565b6101f48682815181106131fe576131fe613df3565b602002602001015151111561324c5760405162461bcd60e51b81526020600482015260146024820152734465736372697074696f6e20746f6f206c6f6e6760601b60448201526064016106a8565b60008451118015613289575060006001600160a01b031684828151811061327557613275613df3565b60200260200101516001600160a01b031614155b1561337657336001600160a01b03168482815181106132aa576132aa613df3565b60200260200101516001600160a01b0316036133045760405162461bcd60e51b8152602060048201526019602482015278436c69656e742063616e6e6f742062652061737369676e656560381b60448201526064016106a8565b876001600160a01b031684828151811061332057613320613df3565b60200260200101516001600160a01b0316036133765760405162461bcd60e51b8152602060048201526015602482015274504d2063616e6e6f742062652061737369676e656560581b60448201526064016106a8565b84818151811061338857613388613df3565b60200260200101518261339b9190614087565b915060010161311c565b508034146133f55760405162461bcd60e51b815260206004820152601860248201527f496e636f7272656374207061796d656e7420616d6f756e74000000000000000060448201526064016106a8565b60018054600091826134068361409a565b9190505590506000600260008381526020019081526020016000209050338160000160006101000a8154816001600160a01b0302191690836001600160a01b03160217905550888160010160006101000a8154816001600160a01b0302191690836001600160a01b03160217905550878160020181905550828160030181905550600081600401819055506000816005018190555060018160060160006101000a81548160ff02191690831515021790555060005b8751811015613701576000808751116134d55760006134f0565b8682815181106134e7576134e7613df3565b60200260200101515b905060006001600160a01b03821661350957600061350c565b60015b9050836007016040518061012001604052808c868151811061353057613530613df3565b602002602001015181526020018b868151811061354f5761354f613df3565b60200260200101518152602001846001600160a01b0316815260200142815260200160006001600160a01b0316856001600160a01b031603613592576000613594565b425b815260200160008152602001600081526020018360068111156135b9576135b96139f8565b81526040805160208181019092526000808252928201528354600181018555938252902081519192600902019081906135f29082613f1b565b506020820151816001015560408201518160020160006101000a8154816001600160a01b0302191690836001600160a01b03160217905550606082015181600301556080820151816004015560a0820151816005015560c0820151816006015560e08201518160070160006101000a81548160ff0219169083600681111561367c5761367c6139f8565b021790555061010082015160088201906136969082613f1b565b5050506001600160a01b038216156136f757336001600160a01b0316826001600160a01b0316867f14c8b65b26297ca8edd10eb94b1300fb6c198710b903943bd3756b8db1a708cc866040516136ee91815260200190565b60405180910390a45b50506001016134bb565b508651604080516001600160a01b038c168152602081018b9052808201869052606081019290925251339184917f39d740c2a801cd526991f897ce41f8fb74a25057b9486bdeb4a44c1622e939ad9181900360800190a350979650505050505050565b60026000540361378757604051633ee5aeb560e01b815260040160405180910390fd5b6002600055565b634e487b7160e01b600052604160045260246000fd5b604051601f8201601f191681016001600160401b03811182821017156137cc576137cc61378e565b604052919050565b600082601f8301126137e557600080fd5b81356001600160401b038111156137fe576137fe61378e565b613811601f8201601f19166020016137a4565b81815284602083860101111561382657600080fd5b816020850160208301376000918101602001919091529392505050565b60008060006060848603121561385857600080fd5b833592506020840135915060408401356001600160401b0381111561387c57600080fd5b613888868287016137d4565b9150509250925092565b6000602082840312156138a457600080fd5b5035919050565b600080604083850312156138be57600080fd5b50508035926020909101359150565b80356001600160a01b03811681146138e457600080fd5b919050565b6000806000606084860312156138fe57600080fd5b8335925060208401359150613915604085016138cd565b90509250925092565b6000806040838503121561393157600080fd5b82359150613941602084016138cd565b90509250929050565b600081518084526020840193506020830160005b8281101561397c57815186526020958601959091019060010161395e565b5093949350505050565b831515815282151560208201526060604082015260006139a9606083018461394a565b95945050505050565b6000815180845260005b818110156139d8576020818501810151868301820152016139bc565b506000602082860101526020601f19601f83011685010191505092915050565b634e487b7160e01b600052602160045260246000fd5b60078110613a2c57634e487b7160e01b600052602160045260246000fd5b9052565b60e081526000613a4360e083018a6139b2565b602083018990526001600160a01b0388166040840152613a666060840188613a0e565b8560808401528460a084015282810360c0840152613a8481856139b2565b9a9950505050505050505050565b600082825180855260208501945060208160051b8301016020850160005b83811015613ae257601f19858403018852613acc8383516139b2565b6020988901989093509190910190600101613ab0565b50909695505050505050565b600081518084526020840193506020830160005b8281101561397c57613b15868351613a0e565b6020958601959190910190600101613b02565b60c081526000613b3b60c0830189613a92565b8281036020840152613b4d818961394a565b838103604085015287518082526020808a0193509091019060005b81811015613b8f5783516001600160a01b0316835260209384019390920191600101613b68565b50508381036060850152613ba38188613aee565b9150508281036080840152613bb8818661394a565b905082810360a0840152613bcc8185613a92565b9998505050505050505050565b60006001600160401b03821115613bf257613bf261378e565b5060051b60200190565b600082601f830112613c0d57600080fd5b8135613c20613c1b82613bd9565b6137a4565b8082825260208201915060208360051b860101925085831115613c4257600080fd5b602085015b83811015613c5f578035835260209283019201613c47565b5095945050505050565b600082601f830112613c7a57600080fd5b8135613c88613c1b82613bd9565b8082825260208201915060208360051b860101925085831115613caa57600080fd5b602085015b83811015613c5f57613cc0816138cd565b835260209283019201613caf565b600080600080600060a08688031215613ce657600080fd5b613cef866138cd565b94506020860135935060408601356001600160401b03811115613d1157600080fd5b8601601f81018813613d2257600080fd5b8035613d30613c1b82613bd9565b8082825260208201915060208360051b85010192508a831115613d5257600080fd5b602084015b83811015613d935780356001600160401b03811115613d7557600080fd5b613d848d6020838901016137d4565b84525060209283019201613d57565b50955050505060608601356001600160401b03811115613db257600080fd5b613dbe88828901613bfc565b92505060808601356001600160401b03811115613dda57600080fd5b613de688828901613c69565b9150509295509295909350565b634e487b7160e01b600052603260045260246000fd5b6020808252600d908201526c4f6e6c792061737369676e656560981b604082015260600190565b60208082526012908201527150726f6a656374206e6f742061637469766560701b604082015260600190565b60208082526017908201527f496e76616c6964206d696c6573746f6e6520696e646578000000000000000000604082015260600190565b600181811c90821680613ea757607f821691505b602082108103613ec757634e487b7160e01b600052602260045260246000fd5b50919050565b601f82111561114557806000526020600020601f840160051c81016020851015613ef45750805b601f840160051c820191505b81811015613f145760008155600101613f00565b5050505050565b81516001600160401b03811115613f3457613f3461378e565b613f4881613f428454613e93565b84613ecd565b6020601f821160018114613f7c5760008315613f645750848201515b600019600385901b1c1916600184901b178455613f14565b600084815260208120601f198516915b82811015613fac5787850151825560209485019460019092019101613f8c565b5084821015613fca5786840151600019600387901b60f8161c191681555b50505050600190811b01905550565b828152604060208201526000613ff260408301846139b2565b949350505050565b6020808252600b908201526a13db9b1e4818db1a595b9d60aa1b604082015260600190565b634e487b7160e01b600052601160045260246000fd5b808202811582820484141761404c5761404c61401f565b92915050565b60008261406f57634e487b7160e01b600052601260045260246000fd5b500490565b8181038181111561404c5761404c61401f565b8082018082111561404c5761404c61401f565b6000600182016140ac576140ac61401f565b506001019056fea2646970667358221220ebecdf853189f3b3cd323d92884f8e1a942b91540f073b50952f9a758ca289c464736f6c634300081e0033",
  "devdoc": {
    "details": "Designed for AI-compatible worker matching - each milestone can have a different assignee State Machine:   Created  Assigned  Accepted  InProgress  Submitted  Approved  Paid                      Declined (returns to Created, clears assignee) Roles:   - Client: Project owner, funds milestones, approves/rejects work   - PM: Optional project manager, can assign workers, earns commission   - Assignee: Worker assigned to a specific milestone (can vary per milestone)",
    "errors": {
      "ReentrancyGuardReentrantCall()": [
        {
          "details": "Unauthorized reentrant call."
        }
      ]
    },
    "kind": "dev",
    "methods": {
      "acceptMilestone(uint256,uint256)": {
        "details": "Can only be called by the assignee",
        "params": {
          "milestoneIndex": "Index of the milestone",
          "projectId": "The project ID"
        }
      },
      "approveMilestone(uint256,uint256)": {
        "details": "Only client can approve. Pays assignee minus PM fee.",
        "params": {
          "milestoneIndex": "Index of the milestone",
          "projectId": "The project ID"
        }
      },
      "assignMilestone(uint256,uint256,address)": {
        "details": "Can be called by client or PM. Worker must then accept.",
        "params": {
          "assignee": "Address of the worker to assign",
          "milestoneIndex": "Index of the milestone",
          "projectId": "The project ID"
        }
      },
      "cancelProject(uint256)": {
        "details": "Can only cancel if no milestones are submitted or in progress with work done",
        "params": {
          "projectId": "The project ID"
        }
      },
      "createProject(address,uint256,string[],uint256[],address[])": {
        "params": {
          "amounts": "Array of milestone amounts (in wei)",
          "descriptions": "Array of milestone descriptions",
          "initialAssignees": "Optional array of initial assignees (can contain address(0))",
          "pm": "Address of the project manager (can be address(0) for no PM)",
          "pmFeeBps": "PM fee in basis points (0-2000, i.e., 0-20%)"
        }
      },
      "declineMilestone(uint256,uint256,string)": {
        "details": "Can only be called by the assignee. Returns milestone to Created status.",
        "params": {
          "milestoneIndex": "Index of the milestone",
          "projectId": "The project ID",
          "reason": "Reason for declining"
        }
      },
      "emergencyReclaim(uint256,uint256)": {
        "details": "Client can reclaim funds after extended timeout",
        "params": {
          "milestoneIndex": "Index of the milestone",
          "projectId": "The project ID"
        }
      },
      "expireAssignment(uint256,uint256)": {
        "details": "Anyone can call this to clean up stale assignments",
        "params": {
          "milestoneIndex": "Index of the milestone",
          "projectId": "The project ID"
        }
      },
      "rejectMilestone(uint256,uint256,string)": {
        "details": "Returns milestone to InProgress status for revision",
        "params": {
          "milestoneIndex": "Index of the milestone",
          "projectId": "The project ID",
          "reason": "Reason for rejection"
        }
      },
      "releaseMilestone(uint256,uint256)": {
        "params": {
          "milestoneIndex": "Index of the milestone",
          "projectId": "The project ID"
        }
      },
      "startMilestone(uint256,uint256)": {
        "details": "Can only be called by assignee after accepting",
        "params": {
          "milestoneIndex": "Index of the milestone",
          "projectId": "The project ID"
        }
      },
      "submitMilestone(uint256,uint256,string)": {
        "details": "Can be called from Accepted or InProgress status",
        "params": {
          "milestoneIndex": "Index of the milestone",
          "note": "Submission note describing deliverables",
          "projectId": "The project ID"
        }
      },
      "unassignMilestone(uint256,uint256)": {
        "details": "Can be called by client or PM. Only works for Assigned status (before acceptance).",
        "params": {
          "milestoneIndex": "Index of the milestone",
          "projectId": "The project ID"
        }
      }
    },
    "title": "ProjectEscrow",
    "version": 1
  },
  "userdoc": {
    "kind": "user",
    "methods": {
      "acceptMilestone(uint256,uint256)": {
        "notice": "Accept an assigned milestone"
      },
      "approveMilestone(uint256,uint256)": {
        "notice": "Approve a milestone and trigger payment"
      },
      "assignMilestone(uint256,uint256,address)": {
        "notice": "Assign a worker to a milestone"
      },
      "cancelProject(uint256)": {
        "notice": "Cancel project and refund unpaid milestones"
      },
      "createProject(address,uint256,string[],uint256[],address[])": {
        "notice": "Create new project with milestones and optional PM"
      },
      "declineMilestone(uint256,uint256,string)": {
        "notice": "Decline an assigned milestone"
      },
      "emergencyReclaim(uint256,uint256)": {
        "notice": "Emergency reclaim for stalled milestones"
      },
      "expireAssignment(uint256,uint256)": {
        "notice": "Auto-unassign if assignment timeout passed"
      },
      "getAddressRole(uint256,address)": {
        "notice": "Check if address is involved in a project"
      },
      "getAllMilestones(uint256)": {
        "notice": "Get all milestones for a project"
      },
      "getMilestone(uint256,uint256)": {
        "notice": "Get milestone basic details"
      },
      "getMilestoneTimestamps(uint256,uint256)": {
        "notice": "Get milestone timestamps"
      },
      "getProject(uint256)": {
        "notice": "Get project details"
      },
      "getProjectStats(uint256)": {
        "notice": "Get project statistics"
      },
      "rejectMilestone(uint256,uint256,string)": {
        "notice": "Reject a milestone submission"
      },
      "releaseMilestone(uint256,uint256)": {
        "notice": "Release payment for approved milestone (legacy) or auto-release after timeout"
      },
      "startMilestone(uint256,uint256)": {
        "notice": "Start working on a milestone"
      },
      "submitMilestone(uint256,uint256,string)": {
        "notice": "Submit completed work for review"
      },
      "unassignMilestone(uint256,uint256)": {
        "notice": "Unassign a worker from a milestone"
      }
    },
    "notice": "Milestone-based escrow with per-milestone assignment and explicit acceptance",
    "version": 1
  },
  "storageLayout": {
    "storage": [
      {
        "astId": 10,
        "contract": "contracts/ProjectEscrow.sol:ProjectEscrow",
        "label": "_status",
        "offset": 0,
        "slot": "0",
        "type": "t_uint256"
      },
      {
        "astId": 123,
        "contract": "contracts/ProjectEscrow.sol:ProjectEscrow",
        "label": "projectCount",
        "offset": 0,
        "slot": "1",
        "type": "t_uint256"
      },
      {
        "astId": 128,
        "contract": "contracts/ProjectEscrow.sol:ProjectEscrow",
        "label": "projects",
        "offset": 0,
        "slot": "2",
        "type": "t_mapping(t_uint256,t_struct(Project)121_storage)"
      }
    ],
    "types": {
      "t_address": {
        "encoding": "inplace",
        "label": "address",
        "numberOfBytes": "20"
      },
      "t_array(t_struct(Milestone)102_storage)dyn_storage": {
        "base": "t_struct(Milestone)102_storage",
        "encoding": "dynamic_array",
        "label": "struct ProjectEscrow.Milestone[]",
        "numberOfBytes": "32"
      },
      "t_bool": {
        "encoding": "inplace",
        "label": "bool",
        "numberOfBytes": "1"
      },
      "t_enum(MilestoneStatus)82": {
        "encoding": "inplace",
        "label": "enum ProjectEscrow.MilestoneStatus",
        "numberOfBytes": "1"
      },
      "t_mapping(t_uint256,t_struct(Project)121_storage)": {
        "encoding": "mapping",
        "key": "t_uint256",
        "label": "mapping(uint256 => struct ProjectEscrow.Project)",
        "numberOfBytes": "32",
        "value": "t_struct(Project)121_storage"
      },
      "t_string_storage": {
        "encoding": "bytes",
        "label": "string",
        "numberOfBytes": "32"
      },
      "t_struct(Milestone)102_storage": {
        "encoding": "inplace",
        "label": "struct ProjectEscrow.Milestone",
        "members": [
          {
            "astId": 84,
            "contract": "contracts/ProjectEscrow.sol:ProjectEscrow",
            "label": "description",
            "offset": 0,
            "slot": "0",
            "type": "t_string_storage"
          },
          {
            "astId": 86,
            "contract": "contracts/ProjectEscrow.sol:ProjectEscrow",
            "label": "amount",
            "offset": 0,
            "slot": "1",
            "type": "t_uint256"
          },
          {
            "astId": 88,
            "contract": "contracts/ProjectEscrow.sol:ProjectEscrow",
            "label": "assignee",
            "offset": 0,
            "slot": "2",
            "type": "t_address"
          },
          {
            "astId": 90,
            "contract": "contracts/ProjectEscrow.sol:ProjectEscrow",
            "label": "createdAt",
            "offset": 0,
            "slot": "3",
            "type": "t_uint256"
          },
          {
            "astId": 92,
            "contract": "contracts/ProjectEscrow.sol:ProjectEscrow",
            "label": "assignedAt",
            "offset": 0,
            "slot": "4",
            "type": "t_uint256"
          },
          {
            "astId": 94,
            "contract": "contracts/ProjectEscrow.sol:ProjectEscrow",
            "label": "acceptedAt",
            "offset": 0,
            "slot": "5",
            "type": "t_uint256"
          },
          {
            "astId": 96,
            "contract": "contracts/ProjectEscrow.sol:ProjectEscrow",
            "label": "submittedAt",
            "offset": 0,
            "slot": "6",
            "type": "t_uint256"
          },
          {
            "astId": 99,
            "contract": "contracts/ProjectEscrow.sol:ProjectEscrow",
            "label": "status",
            "offset": 0,
            "slot": "7",
            "type": "t_enum(MilestoneStatus)82"
          },
          {
            "astId": 101,
            "contract": "contracts/ProjectEscrow.sol:ProjectEscrow",
            "label": "submissionNote",
            "offset": 0,
            "slot": "8",
            "type": "t_string_storage"
          }
        ],
        "numberOfBytes": "288"
      },
      "t_struct(Project)121_storage": {
        "encoding": "inplace",
        "label": "struct ProjectEscrow.Project",
        "members": [
          {
            "astId": 104,
            "contract": "contracts/ProjectEscrow.sol:ProjectEscrow",
            "label": "client",
            "offset": 0,
            "slot": "0",
            "type": "t_address"
          },
          {
            "astId": 106,
            "contract": "contracts/ProjectEscrow.sol:ProjectEscrow",
            "label": "pm",
            "offset": 0,
            "slot": "1",
            "type": "t_address"
          },
          {
            "astId": 108,
            "contract": "contracts/ProjectEscrow.sol:ProjectEscrow",
            "label": "pmFeeBps",
            "offset": 0,
            "slot": "2",
            "type": "t_uint256"
          },
          {
            "astId": 110,
            "contract": "contracts/ProjectEscrow.sol:ProjectEscrow",
            "label": "totalAmount",
            "offset": 0,
            "slot": "3",
            "type": "t_uint256"
          },
          {
            "astId": 112,
            "contract": "contracts/ProjectEscrow.sol:ProjectEscrow",
            "label": "totalPaid",
            "offset": 0,
            "slot": "4",
            "type": "t_uint256"
          },
          {
            "astId": 114,
            "contract": "contracts/ProjectEscrow.sol:ProjectEscrow",
            "label": "totalPmFees",
            "offset": 0,
            "slot": "5",
            "type": "t_uint256"
          },
          {
            "astId": 116,
            "contract": "contracts/ProjectEscrow.sol:ProjectEscrow",
            "label": "active",
            "offset": 0,
            "slot": "6",
            "type": "t_bool"
          },
          {
            "astId": 120,
            "contract": "contracts/ProjectEscrow.sol:ProjectEscrow",
            "label": "milestones",
            "offset": 0,
            "slot": "7",
            "type": "t_array(t_struct(Milestone)102_storage)dyn_storage"
          }
        ],
        "numberOfBytes": "256"
      },
      "t_uint256": {
        "encoding": "inplace",
        "label": "uint256",
        "numberOfBytes": "32"
      }
    }
  }
}